{
  "transactions": [
    {
      "hash": "0xb836f5fdec01a72794fb234dc57b55e4f981eaf56520eb4ac378ee9a24738b62",
      "transactionType": "CALL",
      "contractName": null,
      "contractAddress": "0x98fb5622f81cfa865a2a403cebd848a7458dba3c",
      "function": "addPath(address[])",
      "arguments": [
        "[0xefD766cCb38EaF1dfd701853BFCe31359239F305, 0xA1077a294dDE1B09bB078844df40758a5D0f9a27, 0x2b591e99afE9f32eAA6214f7B7629768c40Eeb39]"
      ],
      "transaction": {
        "from": "0x66de29d492e6816f676b104ec7d7baf5b019e5ea",
        "to": "0x98fb5622f81cfa865a2a403cebd848a7458dba3c",
        "gas": "0x2a687",
        "value": "0x0",
        "input": "0x7b226c3b00000000000000000000000000000000000000000000000000000000000000200000000000000000000000000000000000000000000000000000000000000003000000000000000000000000efd766ccb38eaf1dfd701853bfce31359239f305000000000000000000000000a1077a294dde1b09bb078844df40758a5d0f9a270000000000000000000000002b591e99afe9f32eaa6214f7b7629768c40eeb39",
        "nonce": "0x121",
        "chainId": "0x171",
        "accessList": null,
        "type": null
      },
      "additionalContracts": [],
      "isFixedGasLimit": false
    }
  ],
  "receipts": [
    {
      "status": "0x1",
      "cumulativeGasUsed": "0x1e62e2",
      "logs": [
        {
          "address": "0x98fb5622f81cfa865a2a403cebd848a7458dba3c",
          "topics": [
            "0xaec633c04b8f73425d748e1ee74520d97d96fd89d14bd8c2a81dc110de7b899e"
          ],
          "data": "0x00000000000000000000000000000000000000000000000000000000000000200000000000000000000000000000000000000000000000000000000000000003000000000000000000000000efd766ccb38eaf1dfd701853bfce31359239f305000000000000000000000000a1077a294dde1b09bb078844df40758a5d0f9a270000000000000000000000002b591e99afe9f32eaa6214f7b7629768c40eeb39",
          "blockHash": "0x405f1cb22f03c4ec939b1389d17b1844d4db5ad6a28d602a371e16dfd72d254b",
          "blockNumber": "0x13a4e7d",
          "transactionHash": "0xb836f5fdec01a72794fb234dc57b55e4f981eaf56520eb4ac378ee9a24738b62",
          "transactionIndex": "0xd",
          "logIndex": "0x49",
          "removed": false
        }
      ],
      "logsBloom": "0x00000000000000000000000000000000000000000000000000000000000000000000000000000000000000200000000000000000000000000000000000000000000000000000000000000000000000000000000000000000000000000000000000000000000000000000000000000000000000000000000000000000000008000000000000000000000000000000000000000000000000000000000000000000000000000000000000000401000000000000002000000000000000000000000000000000000000000000000000000000000000000000020000000000000000000000000000000000000000000000000000000000000000000000000000000000",
      "type": "0x2",
      "transactionHash": "0xb836f5fdec01a72794fb234dc57b55e4f981eaf56520eb4ac378ee9a24738b62",
      "transactionIndex": "0xd",
      "blockHash": "0x405f1cb22f03c4ec939b1389d17b1844d4db5ad6a28d602a371e16dfd72d254b",
      "blockNumber": "0x13a4e7d",
      "gasUsed": "0x1eb3f",
      "effectiveGasPrice": "0xe6c13c6e61ea",
      "from": "0x66de29d492e6816f676b104ec7d7baf5b019e5ea",
      "to": "0x98fb5622f81cfa865a2a403cebd848a7458dba3c",
      "contractAddress": null
    }
  ],
  "libraries": [],
  "pending": [],
  "returns": {},
  "timestamp": 1718054639,
  "chain": 369,
  "commit": "5d49b77"
}