{
  "transactions": [
    {
      "hash": "0xd8704be06cc92c8ad58ff32d6e0ba9fa60d0a89bde1d3e780e82bc263196a2e2",
      "transactionType": "CALL",
      "contractName": null,
      "contractAddress": "0x98fb5622f81cfa865a2a403cebd848a7458dba3c",
      "function": "addPath(address[])",
      "arguments": [
        "[0x95B303987A60C71504D99Aa1b13B4DA07b0790ab, 0x2b591e99afE9f32eAA6214f7B7629768c40Eeb39]"
      ],
      "transaction": {
        "from": "0x66de29d492e6816f676b104ec7d7baf5b019e5ea",
        "to": "0x98fb5622f81cfa865a2a403cebd848a7458dba3c",
        "gas": "0x4c975",
        "value": "0x0",
        "input": "0x7b226c3b0000000000000000000000000000000000000000000000000000000000000020000000000000000000000000000000000000000000000000000000000000000200000000000000000000000095b303987a60c71504d99aa1b13b4da07b0790ab0000000000000000000000002b591e99afe9f32eaa6214f7b7629768c40eeb39",
        "nonce": "0x122",
        "chainId": "0x171",
        "accessList": null,
        "type": null
      },
      "additionalContracts": [],
      "isFixedGasLimit": false
    },
    {
      "hash": "0xe33cdbd885b71f011db9b049927f407ec7c04ea7307c512dbf8a225493ace597",
      "transactionType": "CALL",
      "contractName": null,
      "contractAddress": "0x98fb5622f81cfa865a2a403cebd848a7458dba3c",
      "function": "addPath(address[])",
      "arguments": [
        "[0xA1077a294dDE1B09bB078844df40758a5D0f9a27, 0x2b591e99afE9f32eAA6214f7B7629768c40Eeb39]"
      ],
      "transaction": {
        "from": "0x66de29d492e6816f676b104ec7d7baf5b019e5ea",
        "to": "0x98fb5622f81cfa865a2a403cebd848a7458dba3c",
        "gas": "0x215d5",
        "value": "0x0",
        "input": "0x7b226c3b00000000000000000000000000000000000000000000000000000000000000200000000000000000000000000000000000000000000000000000000000000002000000000000000000000000a1077a294dde1b09bb078844df40758a5d0f9a270000000000000000000000002b591e99afe9f32eaa6214f7b7629768c40eeb39",
        "nonce": "0x123",
        "chainId": "0x171",
        "accessList": null,
        "type": null
      },
      "additionalContracts": [],
      "isFixedGasLimit": false
    }
  ],
  "receipts": [],
  "libraries": [],
  "pending": [
    "0xd8704be06cc92c8ad58ff32d6e0ba9fa60d0a89bde1d3e780e82bc263196a2e2",
    "0xe33cdbd885b71f011db9b049927f407ec7c04ea7307c512dbf8a225493ace597"
  ],
  "returns": {},
  "timestamp": 1718054867,
  "chain": 369,
  "commit": "5d49b77"
}