{
  "transactions": [
    {
      "hash": "0x25b9d96d67c03cb42073ec2e5540087afdd71a91e5a019d453bae302318ef507",
      "transactionType": "CALL",
      "contractName": null,
      "contractAddress": "0x5fc0594d45282f6cf5624b217ef1b9b3d6af5a18",
      "function": "startAirdrop(uint64)",
      "arguments": [
        "1718055365"
      ],
      "transaction": {
        "from": "0x66de29d492e6816f676b104ec7d7baf5b019e5ea",
        "to": "0x5fc0594d45282f6cf5624b217ef1b9b3d6af5a18",
        "gas": "0x2a173",
        "value": "0x0",
        "input": "0xfdfdfa8600000000000000000000000000000000000000000000000000000000666771c5",
        "nonce": "0x126",
        "chainId": "0x171",
        "accessList": null,
        "type": null
      },
      "additionalContracts": [],
      "isFixedGasLimit": false
    }
  ],
  "receipts": [
    {
      "status": "0x1",
      "cumulativeGasUsed": "0x271d1b",
      "logs": [
        {
          "address": "0x30c150c084cf5e29b2b1582a5e18509cd672ff88",
          "topics": [
            "0xddf252ad1be2c89b69c2b068fc378daa952ba7f163c4a11628f55a4df523b3ef",
            "0x0000000000000000000000000000000000000000000000000000000000000000",
            "0x0000000000000000000000009f4b45c40a64e345a7222f0ce595503ecb6030a6"
          ],
          "data": "0x00000000000000000000000000000000000000000022602760b3963f6233e000",
          "blockHash": "0x60d41b6291d77fc15e2ead9e7d0791e0ea5ac20a85e2a15f2e749e96a7746f3d",
          "blockNumber": "0x13a4ec1",
          "transactionHash": "0x25b9d96d67c03cb42073ec2e5540087afdd71a91e5a019d453bae302318ef507",
          "transactionIndex": "0x10",
          "logIndex": "0x4d",
          "removed": false
        },
        {
          "address": "0x5fc0594d45282f6cf5624b217ef1b9b3d6af5a18",
          "topics": [
            "0x4c3b33057ca3f948cb6fc6109c246bd0bc0a1459f44668a1660d87a87ba68b14"
          ],
          "data": "0x00000000000000000000000000000000000000000000000000000000666771c5000000000000000000000000000000000000000000000000000000006667741d",
          "blockHash": "0x60d41b6291d77fc15e2ead9e7d0791e0ea5ac20a85e2a15f2e749e96a7746f3d",
          "blockNumber": "0x13a4ec1",
          "transactionHash": "0x25b9d96d67c03cb42073ec2e5540087afdd71a91e5a019d453bae302318ef507",
          "transactionIndex": "0x10",
          "logIndex": "0x4e",
          "removed": false
        }
      ],
      "logsBloom": "0x00000000000000400000000000000000000000000000000000000000000000000400000000000000000000000000000000000000000000000000000000000000000000000000020000000008000000000000000000000000000000000000000080000000020000000000000000000800000000000000000000000010000000000000000000000000000000000000000000000000000000000000000000000000800004000200000000000000000000000000000100000000000000000000000000000002000000080000008000000000000000000000000000010000000020000000000000000000000000000000000000000000000000000000000000000200",
      "type": "0x2",
      "transactionHash": "0x25b9d96d67c03cb42073ec2e5540087afdd71a91e5a019d453bae302318ef507",
      "transactionIndex": "0x10",
      "blockHash": "0x60d41b6291d77fc15e2ead9e7d0791e0ea5ac20a85e2a15f2e749e96a7746f3d",
      "blockNumber": "0x13a4ec1",
      "gasUsed": "0x1cc7b",
      "effectiveGasPrice": "0xd48f2f985573",
      "from": "0x66de29d492e6816f676b104ec7d7baf5b019e5ea",
      "to": "0x5fc0594d45282f6cf5624b217ef1b9b3d6af5a18",
      "contractAddress": null
    }
  ],
  "libraries": [],
  "pending": [],
  "returns": {},
  "timestamp": 1718055334,
  "chain": 369,
  "commit": "5d49b77"
}