{
  "transactions": [
    {
      "hash": "0x20e105be184f58b038ffa17b07c734892e537a61cb3afa667fd6d35a8f8e4e68",
      "transactionType": "CALL",
      "contractName": null,
      "contractAddress": "0xd165dfef31b47d233da312b590a67e038b981d02",
      "function": "startAirdrop(uint64)",
      "arguments": [
        "1718059275"
      ],
      "transaction": {
        "from": "0x66de29d492e6816f676b104ec7d7baf5b019e5ea",
        "to": "0xd165dfef31b47d233da312b590a67e038b981d02",
        "gas": "0x2a173",
        "value": "0x0",
        "input": "0xfdfdfa86000000000000000000000000000000000000000000000000000000006667810b",
        "nonce": "0x143",
        "chainId": "0x171",
        "accessList": null,
        "type": null
      },
      "additionalContracts": [],
      "isFixedGasLimit": false
    }
  ],
  "receipts": [
    {
      "status": "0x1",
      "cumulativeGasUsed": "0xa4ffac",
      "logs": [
        {
          "address": "0xce75a06ea7a643d2fdf29c12509e9f8d3070b853",
          "topics": [
            "0xddf252ad1be2c89b69c2b068fc378daa952ba7f163c4a11628f55a4df523b3ef",
            "0x0000000000000000000000000000000000000000000000000000000000000000",
            "0x0000000000000000000000009f4b45c40a64e345a7222f0ce595503ecb6030a6"
          ],
          "data": "0x000000000000000000000000000000000000000000462e7326cc107492f41d48",
          "blockHash": "0xb920534f38a18033abebd2d2a9be3f5011a94216d2eb8d239377cf0fc42d88ef",
          "blockNumber": "0x13a5042",
          "transactionHash": "0x20e105be184f58b038ffa17b07c734892e537a61cb3afa667fd6d35a8f8e4e68",
          "transactionIndex": "0x24",
          "logIndex": "0x1df",
          "removed": false
        },
        {
          "address": "0xd165dfef31b47d233da312b590a67e038b981d02",
          "topics": [
            "0x4c3b33057ca3f948cb6fc6109c246bd0bc0a1459f44668a1660d87a87ba68b14"
          ],
          "data": "0x000000000000000000000000000000000000000000000000000000006667810b0000000000000000000000000000000000000000000000000000000066678363",
          "blockHash": "0xb920534f38a18033abebd2d2a9be3f5011a94216d2eb8d239377cf0fc42d88ef",
          "blockNumber": "0x13a5042",
          "transactionHash": "0x20e105be184f58b038ffa17b07c734892e537a61cb3afa667fd6d35a8f8e4e68",
          "transactionIndex": "0x24",
          "logIndex": "0x1e0",
          "removed": false
        }
      ],
      "logsBloom": "0x00000000000000000000000000000000000000000000000000000000000000000000000000000004000000000000000000000000000000000000000000000000000000000000000000000008000000000000000000000000000000000000000080000000020000000000000000000800000000000000000000000010000000000000000000000000000000000000000000000000000000020000000000000001800000000000800000000000080000000000000100000000001000000000000000000002000000080000008000000000000000000000000000000000000020000000000000000000000000000000000000000000000000000000000000000200",
      "type": "0x2",
      "transactionHash": "0x20e105be184f58b038ffa17b07c734892e537a61cb3afa667fd6d35a8f8e4e68",
      "transactionIndex": "0x24",
      "blockHash": "0xb920534f38a18033abebd2d2a9be3f5011a94216d2eb8d239377cf0fc42d88ef",
      "blockNumber": "0x13a5042",
      "gasUsed": "0x1cc7b",
      "effectiveGasPrice": "0xb49099730cf7",
      "from": "0x66de29d492e6816f676b104ec7d7baf5b019e5ea",
      "to": "0xd165dfef31b47d233da312b590a67e038b981d02",
      "contractAddress": null
    }
  ],
  "libraries": [],
  "pending": [],
  "returns": {},
  "timestamp": 1718059242,
  "chain": 369,
  "commit": "5d49b77"
}